:100000000C9434000C9448000C9446000C94460068
:100010000C9446000C9446000C9446000C94460048
:100020000C9446000C9446000C9446000C94460038
:100030000C9446000C9446000C9446000C94460028
:100040000C9446000C9446000C9446000C94460018
:100050000C9446000C9446000C9446000C94460008
:100060000C9446000C94460011241FBECFEFD8E03C
:10007000DEBFCDBF21E0A0E0B1E001C01D92A13004
:10008000B207E1F70E945A000C946D000C94000036
:100090001F920F920FB60F9211248F93809100013F
:1000A0008F5F8093000185B98F910F900FBE0F90E5
:1000B0001F9018958FEF84B95298809169008260E3
:1000C00080936900809169008E7F809369007894A5
:0E00D000E89A8091000185B9FFCFF894FFCF28
:00000001FF
