:100000000C9434000C9448000C9475000C94460039
:100010000C9446000C9446000C9446000C94460048
:100020000C9446000C9446000C9446000C94460038
:100030000C9446000C9446000C9446000C94460028
:100040000C9446000C9446000C9446000C94460018
:100050000C9446000C9446000C9446000C94460008
:100060000C9446000C94460011241FBECFEFD8E03C
:10007000DEBFCDBF21E0A0E0B1E001C01D92A13004
:10008000B207E1F70E9495000C94B2000C940000B6
:100090001F920F920FB60F9211242F933F938F93BD
:1000A0009F9320910001263070F435B181E090E0FB
:1000B00001C0880F2A95EAF7832B85B9809100014A
:1000C0008F5F809300012FEF83EC99E021508040F7
:1000D0009040E1F700C000009F918F913F912F91D8
:1000E0000F900FBE0F901F9018951F920F920FB692
:1000F0000F9211242F938F939F938091000186304C
:1001000018F48F5F809300012FEF83EC99E021506A
:1001100080409040E1F700C000009F918F912F91A7
:100120000F900FBE0F901F9018958FEF84B95298C3
:100130005398809169008260809369008091690082
:100140008160809369008091690088608093690074
:10015000809169008460809369007894E89AE99AB4
:0801600015B8FFCFF894FFCFA2
:00000001FF
