:100000000C9434000C943E000C943E000C943E0082
:100010000C943E000C943E000C943E000C943E0068
:100020000C943E000C943E000C943E000C943E0058
:100030000C943E000C943E000C943E000C943E0048
:100040000C9440000C943E000C943E000C943E0036
:100050000C943E000C943E000C943E000C943E0028
:100060000C943E000C943E0011241FBECFEFD8E04C
:10007000DEBFCDBF0E944F000C945E000C940000C8
:100080001F920F920FB60F9211248F9385B1809516
:1000900085B98F910F900FBE0F901F9018958FEF1D
:1000A00084B981E085B914BC85E085BD16BC80911A
:1000B0006E00816080936E007894FFCFF894FFCF3C
:00000001FF
