:100000000C9434000C943E000C943E000C943E0082
:100010000C943E000C943E000C943E000C943E0068
:100020000C943E000C943E000C943E000C943E0058
:100030000C943E000C943E000C943E000C943E0048
:100040000C943E000C943E000C943E000C943E0038
:100050000C943E000C943E000C943E000C943E0028
:100060000C943E000C943E0011241FBECFEFD8E04C
:10007000DEBFCDBF0E9440000C945B000C940000DA
:10008000569A83E884BD83E085BD16BC17BC91E019
:1000900087B58F3F71F087B5811101C091E087B5B9
:1000A000890F87BDEFE3FCE93197F1F700C000004D
:0A00B000EFCF9FEFF4CFF894FFCFDD
:00000001FF
