:100000000C9434000C943E000C943E000C943E0082
:100010000C943E000C943E000C943E000C943E0068
:100020000C943E000C943E000C943E000C943E0058
:100030000C943E000C943E000C943E000C943E0048
:100040000C943E000C943E000C943E000C943E0038
:100050000C943E000C943E000C943E000C943E0028
:100060000C943E000C943E0011241FBECFEFD8E04C
:10007000DEBFCDBF0E9440000C9491000C940000A4
:10008000559A83EA84BD82E085BD16BC8DE788BDA4
:1000900085B58F5F85BD2FEF83ED90E321508040C4
:1000A0009040E1F700C0000085B58F5F85BD2FEF60
:1000B00083ED90E3215080409040E1F700C00000C4
:1000C00085B58F5F85BD2FEF83ED90E32150804094
:1000D0009040E1F700C0000085B5815085BD2FEF4D
:1000E00083ED90E3215080409040E1F700C0000094
:1000F00085B5815085BD2FEF83ED90E32150804081
:100100009040E1F700C0000085B5815085BD2FEF1C
:1001100083ED90E3215080409040E1F700C0000063
:06012000B7CFF894FFCFF9
:00000001FF
