:100000000C9434000C9449000C9449000C94490061
:100010000C9449000C9449000C9449000C9449003C
:100020000C9449000C9449000C9449000C9449002C
:100030000C9449000C9449000C9449000C9449001C
:100040000C9449000C9449000C9449000C9449000C
:100050000C9449000C9449000C9449000C944900FC
:100060000C9449000C94490011241FBECFEFD8E036
:10007000DEBFCDBF11E0A0E0B1E0E8E9F1E002C0F1
:1000800005900D92A431B107D9F70E94AC000C94F1
:10009000CA000C9400009093C5008093C40088E1CE
:1000A0008093C100E2ECF0E0808186608083089557
:1000B0009091C00095FFFCCF8093C6000895809179
:1000C000C00087FFFCCF8091C6000895CF93DF93D7
:1000D000EC018991811103C0DF91CF9108950E94B5
:1000E0005800F7CF0F931F93CF93DF938C010E949B
:1000F0005F00E8018A3011F08D3031F41882DF9111
:10010000CF911F910F91089589930E945F00F2CFC4
:10011000F999FECF92BD81BD60BDFA9AF99A089512
:100120000F931F93CF93DF93EB0169918C010F5FC6
:100130001F4F611106C0DF91CF911F910F910C9459
:1001400088000E948800C801F0CFF999FECF92BDC7
:1001500081BDF89A80B50895CF93DF93CDB7DEB710
:10016000D4500FB6F894DEBF0FBECDBF87E690E047
:100170000E944B00CE0101960E947200BE016F5F8B
:100180007F4F90E080E00E94900080E091E00E942C
:080190006600F0CFF894FFCFE8
:10019800536176656420746F20454550524F4D2158
:0401A8002121000011
:00000001FF
