:100000000C9434000C9451000C9451000C94510049
:100010000C9451000C9451000C9451000C9451001C
:100020000C9451000C9451000C9451000C9451000C
:100030000C9451000C9451000C9451000C945100FC
:100040000C9451000C9451000C9451000C945100EC
:100050000C9451000C9451000C9451000C945100DC
:100060000C9451000C94510011241FBECFEFD8E026
:10007000DEBFCDBF11E0A0E0B1E0E6E7F6E002C0F0
:1000800005900D92A837B107D9F721E0A8E7B1E0B4
:1000900001C01D92AA37B207E1F70E944C020C94EE
:1000A00039030C94000084B1836084B984B1837CEB
:1000B00084B98AB1806C8AB985B1836085B985B10C
:1000C000837C85B98BB1806C8BB98FE39CE90197F8
:1000D000F1F700C00000089584B18C6384B984B145
:1000E0008C7F84B98AB18F738AB985B18C6385B9E5
:1000F00085B18C7F85B98BB18F738BB98FE39CE908
:100100000197F1F700C0000008950F931F93CF935C
:10011000DF93CDB7DEB760970FB6F894DEBF0FBEA2
:10012000CDBF80E1ECE0F1E0DE01119601900D928F
:100130008A95E1F78FE39CE90197F1F700C0000091
:100140000E9453008FE39CE90197F1F700C0000083
:100150001A9952C01B9953C01C9954C01D9BF2CFD1
:1001600000E010E08FE39CE90197F1F700C0000088
:100170000E946C008FE39CE90197F1F700C000003A
:100180008FEF9FEF4E9B03C083E090E0FBCF4F9B30
:1001900003C082E090E0FBCF189B03C081E090E0B9
:1001A000FBCF199B03C080E090E0FBCF8F3F2FEF88
:1001B000920701F33FEF41EE24E0315040402040F0
:1001C000E1F700C00000000F111F000F111F21E018
:1001D00030E02C0F3D1F020F131FF801E80FF91F2D
:1001E000808160960FB6F894DEBF0FBECDBFDF9161
:1001F000CF911F910F91089503E010E0B3CF02E07B
:1002000010E0B0CF01E010E0ADCFF999FECF92BD84
:1002100081BD60BDFA9AF99A0895EF92FF920F930B
:100220001F93CF93DF937C018B01C0E0D0E0F801F6
:1002300061918F01CE018E0D9F1D662321F00E94DA
:1002400005012196F4CFDF91CF911F910F91FF907F
:10025000EF900C940501F999FECF92BD81BDF89AFB
:1002600080B50895EF92FF920F931F93CF93DF9382
:100270008C017B010E942B01E70189930E191F0954
:10028000882339F0C8018C0F9D1F0E942B01899390
:10029000F7CFDF91CF911F910F91FF90EF900895CD
:1002A000429A85E08A95F1F7000042980895CF932D
:1002B000C82F662311F0409A01C040984198529A85
:1002C000539A549A559A5D985C985B985A98C7FDD2
:1002D0005D9AC6FD5C9AC5FD5B9AC4FD5A9A0E9460
:1002E00050015D985C985B985A98C3FD5D9AC2FD79
:1002F0005C9AC1FD5B9AC0FD5A9A0E9450015A9ABD
:100300005B9A5C9A5D9ACF9108954098419A529871
:10031000539854985598429A85E08A95F1F70000D1
:100320004A9B02C080E101C080E04B9980624C99F9
:1003300080644D998068429895E09A95F1F70000A5
:10034000429A95E09A95F1F700004A9981604B999D
:1003500082604C9984604D998860429808950E940B
:10036000850187FDFCCF85E18A95F1F700000C94AB
:100370008501CF93C82F0E94AF0160E08C2FCF91F1
:100380000C945701CF93C82F0E94AF0161E08C2FCE
:10039000CF910C945701611102C0805801C0805464
:1003A0000C94B9010E94AF0190E0089581E00C9493
:1003B000B90182E00C94B901CF93C82F0E94AF011C
:1003C000CA3049F4803410F080E001C080E48058E5
:1003D000CF910C94B90161E08C2FCF910C9457010F
:1003E000CF93DF93EC018991882319F00E94DC01FF
:1003F000FACFDF91CF910895CF93DF93FC018491E1
:10040000EF012196882321F00E94DC01FE01F7CF45
:10041000DF91CF910895CF93C82F389A399A3A9A9D
:10042000529A539A549A559A8FEF99EF0197F1F790
:1004300000C000005B9A5A9A0E9450018FE19EE42E
:100440000197F1F700C000000E9450018FEF90E08B
:100450000197F1F700C000000E9450018FEF90E07B
:100460000197F1F700C000005A980E9450018FEFE9
:1004700090E00197F1F700C0000088E20E94B90106
:1004800088E00E94B9010E94D60186E00E94B9016D
:100490008C2FCF910C94B901CF93DF93CDB7DEB7FA
:1004A0002B970FB6F894DEBF0FBECDBF8CE00E9435
:1004B0000B020E94D60160E080E00E94CB018CE13B
:1004C00091E00E94F00161E080E00E94CB018AE2AD
:1004D00091E00E94F0010E948500809300010E943B
:1004E000D60180910001813309F056C001E011E08E
:1004F0006801FF24F3940E948500809300010E940C
:10050000DC0180910001F60181936F0160E08F2D85
:100510000E94CB01F394FBE0FF12EDCF10920B0190
:100520000E94D60189E391E00E94F0012FEF83ED54
:1005300090E3215080409040E1F700C000000E940D
:10054000D601BE016F5F7F4F80E090E00E943201D4
:10055000CE0101960E941303809378019093790154
:10056000F8019081980F91938F01F1E00B301F07F4
:10057000B9F781E091E00E94F00161E080E00E9423
:10058000CB0188E491E00E94F0010E9485008093F5
:1005900000010E94D6018DCF823309F08ACF60E03E
:1005A00080E00E94CB0187E591E00E94F00161E0CC
:1005B00080E00E94CB0181E0E82E81E0F82E00E08F
:1005C00010E00E94850080930001833271F00E9448
:1005D000DC0180910001F70181937F010F5F1F4FC4
:1005E00061E0802F0E94CB01ECCF0E94D601F80180
:1005F000EF5FFE4F108261E071E080E090E00E94CA
:100600000D0160E080E00E94CB0186E691E00E944F
:10061000F001FFEF23ED80E3F15020408040E1F74F
:1006200000C0000046CFFC0188279927E89421915B
:100630002032E9F3293010F02E30C8F32B3241F08C
:100640002D3239F4689404C00E943103820F911D49
:10065000219120532A30C0F31EF4909581959F4F2D
:1006600008957AE0979F902D879F802D910D1124FA
:060670000895F894FFCF8D
:10067600323132333435363738393000313233415E
:1006860034353642373839432A302344507265733D
:10069600732031206F7220320A0028456E6372790A
:1006A60070742F4B6579290A0050726F63657373F6
:1006B600696E672E2E2E0A00507265737320616E66
:1006C6007920436F6E0A00456E7465722074686502
:1006D600204B65790A004B65792069732053617652
:0806E60065642121210A0000D6
:00000001FF
