:100000000C9434000C943E000C943E000C943E0082
:100010000C943E000C943E000C943E000C943E0068
:100020000C943E000C943E000C943E000C943E0058
:100030000C943E000C943E000C943E000C943E0048
:100040000C943E000C943E000C943E000C943E0038
:100050000C943E000C943E000C943E000C943E0028
:100060000C943E000C943E0011241FBECFEFD8E04C
:10007000DEBFCDBF0E9440000C945C000C940000D9
:10008000259A2D9A24E131EF86E991E02150304004
:1000900080409040D9F700C000C000002D9824E1B6
:1000A00031EF86E991E02150304080409040D9F70F
:0C00B00000C000C00000E5CFF894FFCFB6
:00000001FF
