:100000000C9434000C943E000C943E000C943E0082
:100010000C943E000C943E000C943E000C943E0068
:100020000C943E000C943E000C943E000C943E0058
:100030000C943E000C943E000C943E000C943E0048
:100040000C943E000C943E000C943E000C943E0038
:100050000C943E000C943E000C943E000C943E0028
:100060000C943E000C943E0011241FBECFEFD8E04C
:10007000DEBFCDBF0E9440000C9464000C940000D1
:1000800039988FEF8AB987E880937A0081E6809368
:100090007C002FEF83ED90E3215080409040E1F70A
:1000A00000C0000080917A00806480937A00809183
:1000B0007A0084FFFCCF809179008BB980917A001F
:0C00C0008F7B80937A00E5CFF894FFCF8F
:00000001FF
