:100000000C9434000C943E000C943E000C943E0082
:100010000C943E000C943E000C943E000C943E0068
:100020000C943E000C943E000C943E000C943E0058
:100030000C943E000C943E000C943E000C943E0048
:100040000C943E000C943E000C943E000C943E0038
:100050000C943E000C943E000C943E000C943E0028
:100060000C943E000C943E0011241FBECFEFD8E04C
:10007000DEBFCDBF0E9440000C946C000C940000C9
:100080003A988FEF8AB910927A0080917A00876847
:1000900080937A0010927C0080917C008262809331
:1000A0007C009FEF2FEF39E688E1215030408040FF
:1000B000E1F700C0000080917A00806480937A00AC
:1000C00080917A0084FFFCCF809179008B3F10F003
:0C00D0009BB9E8CF1BB8E6CFF894FFCF37
:00000001FF
