:100000000C9434000C9449000C9449000C94490061
:100010000C9449000C9449000C9449000C9449003C
:100020000C9449000C9449000C9449000C9449002C
:100030000C9449000C9449000C9449000C9449001C
:100040000C9449000C9449000C9449000C9449000C
:100050000C9449000C9449000C9449000C944900FC
:100060000C9449000C94490011241FBECFEFD8E036
:10007000DEBFCDBF11E0A0E0B1E0ECE0F2E002C0F5
:1000800005900D92A230B107D9F70E949A000C9406
:1000900004010C9400009093C5008093C40088E193
:1000A0008093C100E2ECF0E0808186608083089557
:1000B0009091C00095FFFCCF8093C6000895809179
:1000C000C00087FFFCCF8091C6000895CF93DF93D7
:1000D000EC018991811103C0DF91CF9108950E94B5
:1000E0005800F7CF0F931F93CF93DF93CDB7DEB7B1
:1000F0002A970FB6F894DEBF0FBECDBF4AE0BE010F
:100100006F5F7F4F0E94CF008E010F5F1F4FF8017E
:1001100081918F0181110BC02A960FB6F894DEBF32
:100120000FBECDBFDF91CF911F910F9108950E9417
:100130005800EDCF87E690E00E944B0039988FEF92
:100140008AB910927A0087E880937A0010927C0036
:1001500081E680937C002FEF89E698E12150804072
:100160009040E1F700C0000080917A0080648093A5
:100170007A0080917A0084FFFCCF809179008BB95E
:100180008091790090917A009F7B90937A0090E023
:100190000E94720080E091E00E946600DCCFBB27E5
:1001A0004A3031F4992322F4BDE2909581959F4F16
:1001B0000C94DB00BB27FB015527AA27880F991F4A
:1001C000AA1FA41710F0A41B83955051B9F7A05D86
:1001D000AA3308F0A95DA193009779F7B111B19303
:1001E0001192CB010C94F400DC01FC01672F71919A
:1001F0007723E1F7329704C07C916D93708362910D
:0C020000AE17BF07C8F30895F894FFCFB5
:02020C000A00E6
:00000001FF
