:100000000C9434000C9446000C9446000C9446006A
:100010000C9446000C9446000C9446000C94460048
:100020000C9446000C9446000C9446000C94460038
:100030000C9446000C9477000C9446000C944600F7
:100040000C9448000C9446000C9446000C94460016
:100050000C9446000C9446000C9446000C94460008
:100060000C9446000C94460011241FBECFEFD8E03C
:10007000DEBFCDBF21E0A0E0B1E001C01D92A33002
:10008000B207E1F70E948F000C94B2000C940000BC
:100090001F920F920FB60F9211248F939F939091FE
:1000A0000001913039F41092000185B1892785B99A
:1000B00016BC10C080910101909102018C30910515
:1000C00081F481E0809300011092020110920101FD
:1000D0008BEC86BD9F918F910F900FBE0F901F905C
:1000E000189501969093020180930101E1CF1F9230
:1000F0000F920FB60F9211248F939F9385B192E0C8
:10010000892785B98EEE95E89093850080938400C9
:100110009F918F910F900FBE0F901F90189584B1F3
:10012000836084B916BC14BC84E085BD2EEE35E82E
:10013000309385002093840010928000809381008A
:1001400080916E00816080936E0080916F0081606D
:1001500080936F007894289A299A10920201109245
:080160000101FFCFF894FFCF6D
:00000001FF
