:100000000C9434000C9449000C9449000C94490061
:100010000C9449000C9449000C9449000C9449003C
:100020000C9449000C9449000C9449000C9449002C
:100030000C9449000C9449000C9449000C9449001C
:100040000C9449000C9449000C9449000C9449000C
:100050000C9449000C9449000C9449000C944900FC
:100060000C9449000C94490011241FBECFEFD8E036
:10007000DEBFCDBF11E0A0E0B1E0ECE1F1E002C0F5
:1000800005900D92A835B107D9F70E9472000C9423
:100090008C000C9400009093C5008093C40088E10C
:1000A0008093C100E2ECF0E0808186608083089557
:1000B0009091C00095FFFCCF8093C6000895809179
:1000C000C00087FFFCCF8091C6000895CF93DF93D7
:1000D000EC018991811103C0DF91CF9108950E94B5
:1000E0005800F7CF87E690E00E944B0080E091E057
:1000F0000E9466008EE191E00E9466008BE391E031
:100100000E9466002FEF83ED90E3215080409040E5
:0C011000E1F700C00000EACFF894FFCF38
:10011C00452F31392F313234202D204D2E482E20B1
:10012C0047756E61776173656B6172610A00452F6B
:10013C0031392F313239202D204B2E482E20477546
:10014C006E6177617264616E610A00452F31392FDF
:10015C00313331202D20412E502E4B2048616E73AF
:08016C006163686170610A0023
:00000001FF
