:100000000C9434000C9449000C9449000C94490061
:100010000C9449000C9449000C9449000C9449003C
:100020000C9449000C9449000C9449000C9449002C
:100030000C9449000C9449000C9449000C9449001C
:100040000C9449000C9449000C9449000C9449000C
:100050000C9449000C9449000C9449000C944900FC
:100060000C9449000C94490011241FBECFEFD8E036
:10007000DEBFCDBF11E0A0E0B1E0E8E1F1E002C0F9
:1000800005900D92A633B107D9F70E9470000C9429
:100090008A000C9400009093C5008093C40088E10E
:1000A0008093C10086E08093C20008959091C000C3
:1000B00095FFFCCF8093C60008958091C00087FF14
:1000C000FCCF8091C6000895CF93DF93EC01899116
:1000D000811103C0DF91CF9108950E945600F7CFA0
:1000E00087E690E00E944B0080E091E00E9464006F
:1000F0008CE091E00E94640089E291E00E9464003B
:100100002FEF83ED90E3215080409040E1F700C055
:080110000000EACFF894FFCFD4
:10011800452F31392F313234202D0A00452F3139FE
:100128002F313239202D204B2E482E2047756E61F5
:1001380077617264616E610A00452F31392F31335E
:0601480031202D0A000029
:00000001FF
