:100000000C9434000C949A000C9446000C94460016
:100010000C9446000C9446000C9446000C94460048
:100020000C9446000C9446000C9446000C94460038
:100030000C9446000C9446000C9446000C94460028
:100040000C945C000C9446000C9446000C94460002
:100050000C9446000C9446000C9446000C94460008
:100060000C9446000C94460011241FBECFEFD8E03C
:10007000DEBFCDBF21E0A0E0B1E001C01D92A830FD
:10008000B207E1F70E94CA000C941F010C94000013
:1000900087EF92EC9093850080938400109280000B
:1000A00084E080938100B09BFECF1092800010927C
:1000B000810081E086BB08951F920F920FB60F92C8
:1000C00011248F939F9380910601909107018233B1
:1000D000910551F585B18230E1F481E090E0909393
:1000E000050180930401809104019091050101971D
:1000F000C1F485B1880F85B91092070110920601ED
:1001000086E086BD9F918F910F900FBE0F901F903C
:10011000189585B1803239F71092050110920401CB
:10012000E2CF85B18695E7CF019690930701809342
:100130000601E6CF1F920F920FB60F9211242F9354
:100140008F939F9380916E0091E0892780936E003A
:100150008091020190910301892BB9F481E090E034
:1001600090930301809302012FEF89E698E12150DB
:1001700080409040E1F700C000009F918F912F9147
:100180000F900FBE0F901F901895109203011092C0
:100190000201EACF8FE384B982E085B9529814BC9A
:1001A00015BC85B5846085BD86E086BD80916E00F6
:1001B000816080936E001092690080916900826076
:1001C00080936900E89A78948FEF8093B30031E0D0
:1001D00020E05FEF61E080910201909103018130A6
:1001E000910521F52B9B22C04091B00043684093BC
:1001F000B0006093B1004091B300442331F080918E
:10020000B3008F3F81F48FEF9FEF2091B300280F51
:100210002093B300EFE7FEE33197F1F700C0000051
:10022000382F292FD8CF832F922FEFCF1092B000E5
:100230001092B1005093B300832F922FF1CFF89416
:02024000FFCFEE
:00000001FF
