:100000000C9434000C943E000C943E000C943E0082
:100010000C943E000C943E000C943E000C943E0068
:100020000C943E000C943E000C943E000C943E0058
:100030000C943E000C943E000C943E000C943E0048
:100040000C943E000C943E000C943E000C943E0038
:100050000C943E000C943E000C943E000C943E0028
:100060000C943E000C943E0011241FBECFEFD8E04C
:10007000DEBFCDBF0E9440000C945C000C940000D9
:100080008FEF84B98AB985B98BB985B98BB92FEF50
:1000900039E698E1215030409040E1F700C000007F
:1000A00015B81BB82FEF39E698E121503040904049
:0C00B000E1F700C00000E9CFF894FFCF9A
:00000001FF
