:100000000C9434000C943E000C943E000C943E0082
:100010000C943E000C943E000C943E000C943E0068
:100020000C943E000C943E000C943E000C943E0058
:100030000C943E000C943E000C943E000C943E0048
:100040000C943E000C943E000C943E000C943E0038
:100050000C943E000C943E000C943E000C943E0028
:100060000C943E000C943E0011241FBECFEFD8E04C
:10007000DEBFCDBF0E9440000C945A000C940000DB
:100080008FEF84B98AB985B98BB92FEF89E698E1EA
:10009000215080409040E1F700C0000015B81BB827
:1000A0002FEF89E698E1215080409040E1F700C0B1
:0800B0000000EBCFF894FFCF34
:00000001FF
